:04000000FEEF7FF0A0
:101600000000BE6ABF6AC06AC16AC26A0401026B96
:101610000A6B126B1A6B226BC668C768C868C96808
:10162000080ECA6E0069810E086F10691869206B78
:10163000016B096B116B196B216B03690B691369E2
:101640001B69070E236F04690C6914691C690F0E6E
:10165000246F0201896B886B876B866B0401056BB5
:10166000066B076B0D6B0E6B0F6B156B166B176BA9
:10167000256B266B276B1200D69AAF90D680000E92
:10168000076E000E086E7CEC0BF0B490D682000E54
:10169000076E000E086E77EC0BF0B890D684000E43
:1016A000076E000E086E72EC0BF01200600E000167
:1016B000AD6FAF6BB36B080EB16FB06BAC6B12005C
:1016C00056EC0BF001EC0BF03CEC0BF0120060EC74
:1016D0000BF069EF0BF0FEEF7FF0000EF86E0001EB
:1016E00067EF0BF007C501F508C502F5120007C545
:1016F00003F508C504F5120007C505F508C506F58C
:021700001200D5
:04FFFC006DEF0BF0AA
:020000040030CA
:080000008FFFF7FF9FFFFFFFD8
:01000900FFF7
:00000001FF
